:020000040800F2
:100000000040002019070008F5030008FB03000862
:1000100001040008070400080D04000800000000A7
:1000200000000000000000000000000013040008B1
:1000300021040008000000002F0400083D0400080F
:1000400069070008690700086907000869070008D0
:1000500069070008690700086907000869070008C0
:1000600069070008690700086907000869070008B0
:1000700069070008690700086907000869070008A0
:100080006907000869070008690700080000000008
:1000900000000000000000000000000069070008E8
:1000A0006907000869070008690700086907000870
:1000B0006907000800000000000000006907000850
:1000C00069070008690700086907000800000000C8
:1000D0006907000869070008690700086907000840
:1000E0006907000869070008000000000000000020
:1000F0000000000000000000000000000000000000
:100100000000000000000000000000006907000877
:100110000000000000000000690700080000000067
:1001200000000000000000000000000000000000CF
:1001300000000000000000000000000000000000BF
:1001400069070008690700080000000000000000BF
:10015000000000000000000000000000000000009F
:10016000690700086907000800000000000000009F
:10017000000000000000000000000000000000007F
:080180000000000069070008FF
:1001880010B5054C237833B9044B13B10448AFF3C9
:1001980000800123237010BD0C0000200000000027
:1001A8001C38000808B5034B1BB103490348AFF3DB
:1001B800008008BD00000000100000201C38000866
:1001C80080B588B000AF07F10C0300221A605A60AE
:1001D8009A60DA601A612A4B5B69294A43F4003352
:1001E8005361274B5B6903F40033BB60BB68244B46
:1001F8005B69234A43F480235361214B5B6903F411
:1002080080237B607B6800224FF408414FF09040C8
:1002180000F0A2FD002218211A4800F09DFD4FF4BD
:10022800E063FB6000233B6100237B6107F10C0363
:1002380019464FF0904000F005FC4FF40843FB606E
:1002480001233B6100237B610023BB6107F10C03A1
:1002580019464FF0904000F0F5FB1823FB6001238E
:100268003B6100237B610023BB6107F10C03194646
:10027800044800F0E7FB00BF2037BD4680BD00BF43
:10028800001002400004004880B582B000AF00F0C2
:1002980069FA00F02BF8FFF793FF00F0E3F800F09D
:1002A800A3F94FF480714FF0904000F03DFD0346F4
:1002B8003B714FF400714FF0904000F035FD03465C
:1002C8007B714FF480614FF0904000F02DFD0346A4
:1002D800BB71391D4FF0FF330322034802F032FE91
:1002E800642000F0A5FADCE77400002080B59CB01B
:1002F80000AF07F1480328220021184603F05EFAF0
:1003080007F1340300221A605A609A60DA601A61B1
:100318003B1D30220021184603F050FA0223BB642B
:100328000123BB651023FB6502237B660023BB66A4
:100338004FF46013FB6607F14803184600F024FDEC
:100348000346002B01D000F027F80F237B6302231C
:10035800BB630023FB634FF480633B6400237B642F
:1003680007F134030221184601F04CFD0346002B27
:1003780001D000F011F801237B600023FB603B1DD6
:10038800184601F075FF0346002B01D000F004F871
:1003980000BF7037BD4680BD80B400AF72B600BFE5
:1003A800FEE7000080B483B000AF0F4B9B690E4A94
:1003B80043F0010393610C4B9B6903F001037B60DD
:1003C8007B68094BDB69084A43F08053D361064BCD
:1003D800DB6903F080533B603B6800BF0C37BD46C8
:1003E8005DF8047B704700BF0010024080B400AF86
:1003F800FEE780B400AFFEE780B400AFFEE780B44C
:1004080000AFFEE780B400AFFEE780B400AF00BFE6
:10041800BD465DF8047B704780B400AF00BFBD46A1
:100428005DF8047B704780B400AF00BFBD465DF83F
:10043800047B704780B500AF00F0DAF900BF80BDDB
:1004480080B400AF064BD3F88830054A43F47003F4
:10045800C2F8883000BFBD465DF8047B704700BF16
:1004680000ED00E080B58AB000AF07F11C03002260
:100478001A605A609A603B4600221A605A609A6075
:10048800DA601A615A619A612D4B4FF080421A6006
:100498002B4B00225A602A4B00229A60284B4FF0BF
:1004A800FF32DA60264B00221A61254B00229A613E
:1004B800234802F061F80346002B01D0FFF76CFFD8
:1004C8000023FB6100237B6207F11C0319461C48CB
:1004D80002F0D2FC0346002B01D0FFF75DFF60233A
:1004E8003B6000237B600023BB6000233B613B46ED
:1004F80000221946124802F097F80346002B01D053
:10050800FFF74AFF3B46042219460D4802F08CF8D3
:100518000346002B01D0FFF73FFF3B460822194650
:10052800074802F081F80346002B01D0FFF734FF9B
:10053800034800F025F800BF2837BD4680BD00BF3E
:100548002800002080B485B000AF78607B681B6805
:10055800B3F1804F0BD1094BDB69084A43F0010323
:10056800D361064BDB6903F00103FB60FB6800BF46
:100578001437BD465DF8047B704700BF0010024089
:1005880080B588B000AF786007F10C0300221A60CC
:100598005A609A60DA601A617B681B68B3F1804F11
:1005A8001CD1104B5B690F4A43F4003353610D4B68
:1005B8005B6903F40033BB60BB680723FB6002235D
:1005C8003B6100237B610023BB610123FB6107F1D1
:1005D8000C0319464FF0904000F034FA00BF203762
:1005E800BD4680BD0010024080B500AF154B164ACD
:1005F8001A60144B4FF416425A60124B00229A604C
:10060800104B0022DA600F4B00221A610D4B0C22AE
:100618005A610C4B00229A610A4B0022DA61094B9D
:1006280000221A62074B00225A620023002200218E
:10063800044803F05CF80346002B01D0FFF7ACFE3A
:1006480000BF80BD740000200038014080B58AB02A
:1006580000AF786007F1140300221A605A609A60AC
:10066800DA601A617B681B68264A934245D1264B9B
:100678009B69254A43F480439361234B9B6903F4A8
:1006880080433B613B69204B5B691F4A43F400335D
:1006980053611D4B5B6903F40033FB60FB681A4B25
:1006A8005B69194A43F480235361174B5B6903F470
:1006B8008023BB60BB684FF480537B610223BB611E
:1006C8000023FB6103233B6207237B6207F11403CA
:1006D80019464FF0904000F0B5F9C0237B61022322
:1006E800BB610023FB6103233B6207237B6207F1A5
:1006F80014031946054800F0A5F900BF2837BD4680
:1007080080BD00BF003801400010024000040048CE
:10071800DFF834D0FFF794FE0C480D490D4A00234A
:1007280002E0D458C4500433C4188C42F9D30A4A9E
:100738000A4C002301E013600432A242FBD303F009
:1007480045F8FFF7A1FDFEE700400020000000206B
:100758000C000020743800080C0000200001002064
:10076800FEE7000080B500AF084B1B68074A43F05E
:1007780010031360032000F031F90F2000F008F88F
:10078800FFF710FE0023184680BD00BF002002407E
:1007980080B582B000AF7860124B1A68124B1B7894
:1007A80019464FF47A73B3FBF1F3B2FBF3F318462F
:1007B80000F03BF90346002B01D001230EE07B68D3
:1007C8000F2B0AD8002279684FF0FF3000F011F99A
:1007D800064A7B681360002300E0012318460837A7
:1007E800BD4680BD00000020080000200400002055
:1007F80080B400AF064B1B781A46064B1B6813449F
:10080800044A136000BFBD465DF8047B704700BF13
:1008180008000020FC00002080B400AF034B1B68D8
:100828001846BD465DF8047B704700BFFC000020F9
:1008380080B584B000AF7860FFF7EEFFB8607B68E2
:10084800FB60FB68B3F1FF3F05D00A4B1B781A46E3
:10085800FB681344FB6000BFFFF7DEFF0246BB687E
:10086800D31AFA689A42F7D800BF00BF1037BD46BE
:1008780080BD00BF0800002080B485B000AF78605C
:100888007B6803F00703FB600C4BDB68BB60BA684E
:100898004FF6FF031340BB60FB681A02BB681343A3
:1008A80043F0BF6343F40033BB60044ABB68D360C2
:1008B80000BF1437BD465DF8047B704700ED00E0CB
:1008C80080B400AF044BDB681B0A03F0070318462B
:1008D800BD465DF8047B704700ED00E080B483B04E
:1008E80000AF03463960FB7197F90730002B0ADB2C
:1008F8003B68DAB20C4997F907301201D2B20B44BF
:1009080083F800230AE03B68DAB20849FB7903F070
:100918000F03043B1201D2B20B441A7600BF0C3706
:10092800BD465DF8047B704700E100E000ED00E0A3
:1009380080B489B000AFF860B9607A60FB6803F0F2
:100948000703FB61FB69C3F10703042B28BF0423DA
:10095800BB61FB690433062B02D9FB69033B00E04A
:1009680000237B614FF0FF32BB6902FA03F3DA43DD
:10097800BB681A407B699A404FF0FF317B6901FAE6
:1009880003F3D9437B680B40134318462437BD460D
:100998005DF8047B7047000080B582B000AF7860D6
:1009A8007B68013BB3F1807F01D301230FE00A4A42
:1009B8007B68013B53600F214FF0FF30FFF78EFF3C
:1009C800054B00229A60044B07221A600023184640
:1009D8000837BD4680BD00BF10E000E080B582B09A
:1009E80000AF78607868FFF747FF00BF0837BD465B
:1009F80080BD80B586B000AF0346B9607A60FB73EE
:100A080000237B61FFF75CFF78617A68B9687869D1
:100A1800FFF78EFF024697F90F3011461846FFF789
:100A28005DFF00BF1837BD4680BD80B582B000AFFE
:100A380078607868FFF7B0FF034618460837BD4668
:100A480080BD000080B487B000AF786039600023B3
:100A58007B614EE13B681A6801217B6901FA03F367
:100A68001340FB60FB68002B00F040813B685B682B
:100A780003F00303012B05D03B685B6803F0030315
:100A8800022B30D17B689B683B617B695B0003224A
:100A980002FA03F3DB433A6913403B613B68DA68C7
:100AA8007B695B0002FA03F33A6913433B617B6895
:100AB8003A699A607B685B683B6101227B6902FA4C
:100AC80003F3DB433A6913403B613B685B681B09EE
:100AD80003F001027B6902FA03F33A6913433B61AD
:100AE8007B683A695A603B685B6803F00303032B31
:100AF80017D07B68DB683B617B695B00032202FAE5
:100B080003F3DB433A6913403B613B689A687B69AE
:100B18005B0002FA03F33A6913433B617B683A6965
:100B2800DA603B685B6803F00303022B23D17B691F
:100B3800DA087B68083253F822303B617B6903F09E
:100B480007039B000F2202FA03F3DB433A691340C1
:100B58003B613B681A697B6903F007039B0002FA53
:100B680003F33A6913433B617B69DA087B6808320F
:100B7800396943F822107B681B683B617B695B001D
:100B8800032202FA03F3DB433A6913403B613B68F3
:100B98005B6803F003027B695B0002FA03F33A69BE
:100BA80013433B617B683A691A603B685B6803F4EE
:100BB8004033002B00F09A80554B9B69544A43F010
:100BC80001039361524B9B6903F00103BB60BB684F
:100BD800504A7B699B08023352F823303B617B699A
:100BE80003F003039B000F2202FA03F3DB433A6985
:100BF80013403B617B68B3F1904F13D07B68464A42
:100C080093420DD07B68454A934207D07B68444A9B
:100C1800934201D1032306E0052304E0022302E006
:100C2800012300E000237A6902F003029200934056
:100C38003A6913433B6137497B699B0802333A6938
:100C480041F82320374B9B683B61FB68DB433A69DB
:100C580013403B613B685B6803F48013002B03D0AF
:100C68003A69FB6813433B612E4A3B6993602D4BFD
:100C7800DB683B61FB68DB433A6913403B613B68D7
:100C88005B6803F40013002B03D03A69FB68134335
:100C98003B61244A3B69D360224B5B683B61FB683C
:100CA800DB433A6913403B613B685B6803F40033FC
:100CB800002B03D03A69FB6813433B61194A3B692F
:100CC8005360184B1B683B61FB68DB433A69134070
:100CD8003B613B685B6803F48033002B03D03A69BF
:100CE800FB6813433B610F4A3B6913607B6901331F
:100CF8007B613B681A687B6922FA03F3002B7FF457
:100D0800A9AE00BF00BF1C37BD465DF8047B704725
:100D1800001002400000014000040048000800489C
:100D2800000C00480004014080B485B000AF786032
:100D38000B467B807B681A697B881340002B02D0A6
:100D48000123FB7301E00023FB73FB7B1846143778
:100D5800BD465DF8047B704780B483B000AF78600F
:100D68000B467B8013467B707B78002B03D07A88F8
:100D78007B689A6102E07A887B689A6200BF0C37C8
:100D8800BD465DF8047B704780B5ADF5007D00AFCA
:100D980007F50073A3F5FE73186007F50073A3F554
:100DA800FE731B68002B02D1012301F023B807F55D
:100DB8000073A3F5FE731B681B6803F00103002B87
:100DC80000F07D81BC4B5B6803F00C03042B0CD056
:100DD800B94B5B6803F00C03082B5CD1B64B5B681E
:100DE80003F48033B3F5803F55D14FF40033C7F88F
:100DF800F031D7F8F03193FAA3F3C7F8EC31D7F80C
:100E0800EC31B3FA83F3DBB25B09DBB243F00103E5
:100E1800DBB2012B02D1A84B1B6815E04FF400335D
:100E2800C7F8E831D7F8E83193FAA3F3C7F8E43103
:100E38004FF40033C7F8E031D7F8E03193FAA3F361
:100E4800C7F8DC319C4B5B6A4FF40032C7F8D821F5
:100E5800D7F8D82192FAA2F2C7F8D421D7F8D4212A
:100E6800B2FA82F2D2B242F02002D2B202F01F02EB
:100E7800012101FA02F21340002B00F01F8107F54F
:100E88000073A3F5FE731B685B68002B40F01681A6
:100E9800012300F0AFBF07F50073A3F5FE731B68CD
:100EA8005B68B3F5803F06D1834B1B68824A43F4E5
:100EB8008033136036E007F50073A3F5FE731B68F3
:100EC8005B68002B0CD17C4B1B687B4A23F4803376
:100ED8001360794B1B68784A23F48023136021E060
:100EE80007F50073A3F5FE731B685B68B3F5A02FC5
:100EF8000CD1714B1B68704A43F4802313606E4B0E
:100F08001B686D4A43F4803313600BE06A4B1B681F
:100F1800694A23F480331360674B1B68664A23F4DD
:100F280080231360644BDB6A23F00F0207F500731C
:100F3800A3F5FE731B689B685F491343CB6207F5F3
:100F48000073A3F5FE731B685B68002B59D0FFF78D
:100F580063FCC7F8F8010AE0FFF75EFC0246D7F821
:100F6800F831D31A642B02D9032300F043BF4FF49E
:100F78000033C7F8D031D7F8D03193FAA3F3C7F8C4
:100F8800CC31D7F8CC31B3FA83F3DBB25B09DBB2EF
:100F980043F00103DBB2012B02D1474B1B6815E07C
:100FA8004FF40033C7F8C831D7F8C83193FAA3F320
:100FB800C7F8C4314FF40033C7F8C031D7F8C0318F
:100FC80093FAA3F3C7F8BC313B4B5B6A4FF400328A
:100FD800C7F8B821D7F8B82192FAA2F2C7F8B42115
:100FE800D7F8B421B2FA82F2D2B242F02002D2B2D9
:100FF80002F01F02012101FA02F21340002BABD0CC
:101008005DE0FFF709FCC7F8F8010AE0FFF704FC08
:101018000246D7F8F831D31A642B02D9032300F01B
:10102800E9BE4FF40033C7F8B031D7F8B03193FABE
:10103800A3F3C7F8AC31D7F8AC31B3FA83F3DBB21A
:101048005B09DBB243F00103DBB2012B02D11A4B7F
:101058001B6815E04FF40033C7F8A831D7F8A8315A
:1010680093FAA3F3C7F8A4314FF40033C7F8A031BB
:10107800D7F8A03193FAA3F3C7F89C310E4B5B6AFB
:101088004FF40032C7F89821D7F8982192FAA2F2C3
:10109800C7F89421D7F89421B2FA82F2D2B242F07A
:1010A8002002D2B202F01F02012101FA02F213401B
:1010B800002BABD103E000BF0010024000BF07F5D2
:1010C8000073A3F5FE731B681B6803F00203002B73
:1010D80000F07D81A64B5B6803F00C03002B0BD05E
:1010E800A34B5B6803F00C03082B72D1A04B5B6821
:1010F80003F48033002B6CD10223C7F89031D7F862
:10110800903193FAA3F3C7F88C31D7F88C31B3FA3E
:1011180083F3DBB25B09DBB243F00103DBB2012BE3
:1011280002D1934B1B6813E00223C7F88831D7F824
:10113800883193FAA3F3C7F884310223C7F88031C2
:10114800D7F8803193FAA3F3C7F87C31884B5B6AF0
:101158000222C7F87821D7F8782192FAA2F2C7F8C4
:101168007421D7F87421B2FA82F2D2B242F0200286
:10117800D2B202F01F02012101FA02F21340002B41
:101188000AD007F50073A3F5FE731B681B69012BD2
:1011980002D0012300F02EBE754B1B6823F0F80225
:1011A80007F50073A3F5FE731B685B69F821C7F8A0
:1011B8007011D7F8701191FAA1F1C7F86C11D7F82E
:1011C8006C11B1FA81F1C9B28B40694913430B60C4
:1011D800FDE007F50073A3F5FE731B681B69002B80
:1011E80000F088800123C7F86831D7F8683193FA8E
:1011F800A3F3C7F86431D7F86431B3FA83F3DBB2E9
:1012080003F1845303F584139B001A4601231360EA
:10121800FFF702FBC7F8F8010AE0FFF7FDFA0246FC
:10122800D7F8F831D31A022B02D9032300F0E2BD14
:101238000223C7F86031D7F8603193FAA3F3C7F8EF
:101248005C31D7F85C31B3FA83F3DBB25B09DBB20C
:1012580043F00103DBB2012B02D1454B1B6813E0BD
:101268000223C7F85831D7F8583193FAA3F3C7F8CF
:1012780054310223C7F85031D7F8503193FAA3F309
:10128800C7F84C313A4B5B6A0222C7F84821D7F8B5
:10129800482192FAA2F2C7F84421D7F84421B2FAB9
:1012A80082F2D2B242F02002D2B202F01F02012131
:1012B80001FA02F21340002BAFD02D4B1B6823F02C
:1012C800F80207F50073A3F5FE731B685B69F82144
:1012D800C7F84011D7F8401191FAA1F1C7F83C11AD
:1012E800D7F83C11B1FA81F1C9B28B4020491343B8
:1012F8000B606CE00123C7F83831D7F8383193FA1E
:10130800A3F3C7F83431D7F83431B3FA83F3DBB237
:1013180003F1845303F584139B001A4600231360DA
:10132800FFF77AFAC7F8F8010AE0FFF775FA0246FC
:10133800D7F8F831D31A022B02D9032300F05ABD8B
:101348000223C7F83031D7F8303193FAA3F3C7F83E
:101358002C31D7F82C31B3FA83F3DBB25B09DBB25B
:1013680043F00103DBB2012B04D1014B1B6815E0EC
:10137800001002400223C7F82831D7F8283193FA21
:10138800A3F3C7F824310223C7F82031D7F8203156
:1013980093FAA3F3C7F81C31C84B5B6A0222C7F85B
:1013A8001821D7F8182192FAA2F2C7F81421D7F811
:1013B8001421B2FA82F2D2B242F02002D2B202F082
:1013C8001F02012101FA02F21340002BADD107F5EB
:1013D8000073A3F5FE731B681B6803F00803002B5A
:1013E80000F0108107F50073A3F5FE731B689B6975
:1013F800002B79D00123C7F81031D7F8103193FAB0
:10140800A3F3C7F80C31D7F80C31B3FA83F3DBB286
:101418001A46AB4B13449B001A4601231360FFF78F
:10142800FBF9C7F8F8010AE0FFF7F6F90246D7F822
:10143800F831D31A022B02D9032300F0DBBC0223B4
:10144800C7F80831D7F8083193FAA3F3C7F804317D
:1014580007F50073A3F5807302221A6007F500737D
:10146800A3F580731B6893FAA3F207F50073A3F53D
:1014780082731A6007F50073A3F5847302221A6059
:1014880007F50073A3F584731B6893FAA3F207F5B5
:101498000073A3F586731A60884B5A6A07F50073C0
:1014A800A3F588730221196007F50073A3F5887303
:1014B8001B6893FAA3F107F50073A3F58A73196003
:1014C80007F50073A3F58A731B68B3FA83F3DBB2DD
:1014D80043F06003DBB203F01F03012101FA03F3B9
:1014E8001340002BA0D08DE007F50073A3F58C7393
:1014F80001221A6007F50073A3F58C731B6893FA31
:10150800A3F207F50073A3F58E731A6007F500734D
:10151800A3F58E731B68B3FA83F3DBB21A46684BE4
:1015280013449B001A4600231360FFF775F9C7F8A8
:10153800F8010AE0FFF770F90246D7F8F831D31A34
:10154800022B02D9032300F055BC07F50073A3F55D
:10155800907302221A6007F50073A3F590731B6855
:1015680093FAA3F207F50073A3F592731A6007F5CF
:101578000073A3F5947302221A6007F50073A3F5AC
:1015880094731B6893FAA3F207F50073A3F5967397
:101598001A6007F50073A3F5987302221A6007F51D
:1015A8000073A3F598731B6893FAA3F207F5007309
:1015B800A3F59A731A60414B5A6A07F50073A3F5AD
:1015C8009C730221196007F50073A3F59C731B68CF
:1015D80093FAA3F107F50073A3F59E73196007F555
:1015E8000073A3F59E731B68B3FA83F3DBB243F071
:1015F8006003DBB203F01F03012101FA03F3134078
:10160800002B97D107F50073A3F5FE731B681B68C1
:1016180003F00403002B00F0A181002387F8FF31B9
:10162800264BDB6903F08053002B16D1234BDB6973
:10163800224A43F08053D361204BDB6903F0805288
:1016480007F50073A3F5FC731A6007F50073A3F59B
:10165800FC731B68012387F8FF311A4B1B6803F4DE
:101668008073002B1AD1174B1B68164A43F48073FA
:101678001360FFF7D1F8C7F8F80109E0FFF7CCF8D5
:101688000246D7F8F831D31A642B01D90323B1E302
:101698000C4B1B6803F48073002BEFD007F5007325
:1016A800A3F5FE731B68DB68012B0DD1034B1B6A86
:1016B800024A43F0010313623CE000BF00100240FD
:1016C800208190100070004007F50073A3F5FE73A9
:1016D8001B68DB68002B0CD1C14B1B6AC04A23F086
:1016E80001031362BE4B1B6ABD4A23F00403136255
:1016F80020E007F50073A3F5FE731B68DB68052B74
:101708000CD1B74B1B6AB64A43F004031362B44BBF
:101718001B6AB34A43F0010313620BE0B04B1B6A28
:10172800AF4A23F001031362AD4B1B6AAC4A23F0A6
:101738000403136207F50073A3F5FE731B68DB68E7
:10174800002B00F08180FFF767F8C7F8F8010BE07D
:10175800FFF762F80246D7F8F831D31A41F2883217
:10176800934201D9032345E307F50073A3F5A0735A
:1017780002221A6007F50073A3F5A0731B6893FA99
:10178800A3F207F50073A3F5A2731A6007F50073B7
:10179800A3F5A47302221A6007F50073A3F5A473D6
:1017A8001B6893FAA3F207F50073A3F5A6731A60F2
:1017B80007F50073A3F5A6731B68B3FA83F3DBB2CE
:1017C8005B09DBB243F00203DBB2022B02D1844B8C
:1017D8001B6A13E007F50073A3F5A87302221A60C9
:1017E80007F50073A3F5A8731B6893FAA3F207F52E
:1017F8000073A3F5AA731A60794B5B6A07F5007248
:10180800A2F5AC720221116007F50072A2F5AC7264
:10181800126892FAA2F107F50072A2F5AE72116091
:1018280007F50072A2F5AE721268B2FA82F2D2B26D
:1018380042F04002D2B202F01F02012101FA02F284
:101848001340002B84D07FE0FEF7E6FFC7F8F801CD
:101858000BE0FEF7E1FF0246D7F8F831D31A41F260
:101868008832934201D90323C4E207F50073A3F534
:10187800B07302221A6007F50073A3F5B0731B68F2
:1018880093FAA3F207F50073A3F5B2731A6007F58C
:101898000073A3F5B47302221A6007F50073A3F569
:1018A800B4731B6893FAA3F207F50073A3F5B67334
:1018B8001A6007F50073A3F5B6731B68B3FA83F3D0
:1018C800DBB25B09DBB243F00203DBB2022B02D1CD
:1018D800434B1B6A13E007F50073A3F5B8730222A4
:1018E8001A6007F50073A3F5B8731B6893FAA3F29F
:1018F80007F50073A3F5BA731A60394B5B6A07F5ED
:101908000072A2F5BC720221116007F50072A2F5FF
:10191800BC72126892FAA2F107F50072A2F5BE72C3
:10192800116007F50072A2F5BE721268B2FA82F26F
:10193800D2B242F04002D2B202F01F02012101FAF3
:1019480002F21340002B84D197F8FF31012B05D107
:10195800234BDB69224A23F08053D36107F50073D8
:10196800A3F5FE731B68DB69002B00F042821C4B59
:101978005B6803F00C03082B00F0138207F5007373
:10198800A3F5FE731B68DB69022B40F0628107F543
:101998000073A3F5C0734FF080721A6007F50073E7
:1019A800A3F5C0731B6893FAA3F207F50073A3F5B8
:1019B800C2731A6007F50073A3F5C2731B68B3FA04
:1019C80083F3DBB203F1845303F584139B001A46B7
:1019D80000231360FEF720FFC7F8F8010CE000BFF2
:1019E80000100240FEF718FF0246D7F8F831D31A64
:1019F800022B01D90323FDE107F50073A3F5C47396
:101A08004FF000721A6007F50073A3F5C4731B68E2
:101A180093FAA3F207F50073A3F5C6731A6007F5E6
:101A28000073A3F5C6731B68B3FA83F3DBB25B09D3
:101A3800DBB243F00103DBB2012B02D1B04B1B68D0
:101A480027E007F50073A3F5C8734FF000721A601A
:101A580007F50073A3F5C8731B6893FAA3F207F59B
:101A68000073A3F5CA731A6007F50073A3F5CC7366
:101A78004FF000721A6007F50073A3F5CC731B686A
:101A880093FAA3F207F50073A3F5CE731A609C4B83
:101A98005B6A07F50072A2F5D0724FF00071116011
:101AA80007F50072A2F5D072126892FAA2F107F552
:101AB8000072A2F5D272116007F50072A2F5D27217
:101AC8001268B2FA82F2D2B242F02002D2B202F026
:101AD8001F02012101FA02F21340002B82D1884B28
:101AE8005B6823F4741207F50073A3F5FE731B6893
:101AF800596A07F50073A3F5FE731B681B6A0B434D
:101B08007F4913434B6007F50073A3F5D4734FF077
:101B180080721A6007F50073A3F5D4731B6893FAF3
:101B2800A3F207F50073A3F5D6731A6007F50073DF
:101B3800A3F5D6731B68B3FA83F3DBB203F18453BE
:101B480003F584139B001A4601231360FEF764FE15
:101B5800C7F8F80109E0FEF75FFE0246D7F8F8314A
:101B6800D31A022B01D9032344E107F50073A3F527
:101B7800D8734FF000721A6007F50073A3F5D87395
:101B88001B6893FAA3F207F50073A3F5DA731A60DA
:101B980007F50073A3F5DA731B68B3FA83F3DBB2B6
:101BA8005B09DBB243F00103DBB2012B02D1544BDA
:101BB8001B6827E007F50073A3F5DC734FF000728C
:101BC8001A6007F50073A3F5DC731B6893FAA3F298
:101BD80007F50073A3F5DE731A6007F50073A3F524
:101BE800E0734FF000721A6007F50073A3F5E07315
:101BF8001B6893FAA3F207F50073A3F5E2731A6062
:101C08003F4B5B6A07F50072A2F5E4724FF0007172
:101C1800116007F50072A2F5E472126892FAA2F157
:101C280007F50072A2F5E672116007F50072A2F5D9
:101C3800E6721268B2FA82F2D2B242F02002D2B24E
:101C480002F01F02012101FA02F21340002B82D098
:101C5800CFE007F50073A3F5E8734FF080721A60C0
:101C680007F50073A3F5E8731B6893FAA3F207F569
:101C78000073A3F5EA731A6007F50073A3F5EA7316
:101C88001B68B3FA83F3DBB203F1845303F58413BF
:101C98009B001A4600231360FEF7BEFDC7F8F80143
:101CA80009E0FEF7B9FD0246D7F8F831D31A022B3E
:101CB80001D903239EE007F50073A3F5EC734FF0F9
:101CC80000721A6007F50073A3F5EC731B6893FAAA
:101CD800A3F207F50073A3F5EE731A6007F5007316
:101CE800A3F5EE731B68B3FA83F3DBB25B09DBB2CF
:101CF80043F00103DBB2012B04D1014B1B6829E03F
:101D08000010024007F50073A3F5F0734FF000725E
:101D18001A6007F50073A3F5F0731B6893FAA3F232
:101D280007F50073A3F5F2731A6007F50073A3F5BE
:101D3800F4734FF000721A6007F50073A3F5F4739B
:101D48001B6893FAA3F207F50073A3F5F6731A60FC
:101D58002B4B5B6A07F50072A2F5F8724FF0007121
:101D6800116007F50072A2F5F872126892FAA2F1F2
:101D780007F50072A2F5FA72116007F50072A2F574
:101D8800FA721268B2FA82F2D2B242F02002D2B2E9
:101D980002F01F02012101FA02F21340002B80D148
:101DA80027E007F50073A3F5FE731B68DB69012BB9
:101DB80001D101231EE0124B5B68C7F8F431D7F854
:101DC800F43103F4803207F50073A3F5FE731B6842
:101DD8001B6A9A420BD1D7F8F43103F4701207F555
:101DE8000073A3F5FE731B685B6A9A4201D0012356
:101DF80000E00023184607F50077BD4680BD00BF08
:101E08000010024080B59EB000AF786039600023B2
:101E18007B677B68002B01D1012362E1904B1B6833
:101E280003F007033A689A4210D98D4B1B6823F0D8
:101E380007028B493B6813430B60894B1B6803F00F
:101E480007033A689A4201D001234AE17B681B687C
:101E580003F00203002B08D0824B5B6823F0F002EA
:101E68007B689B687F4913434B607B681B6803F062
:101E78000103002B00F0DC807B685B68012B3CD100
:101E88004FF400333B673B6F93FAA3F3FB66FB6E9B
:101E9800B3FA83F3DBB25B09DBB243F00103DBB2D5
:101EA800012B02D16F4B1B680FE04FF40033BB6668
:101EB800BB6E93FAA3F37B664FF400333B663B6E2D
:101EC80093FAA3F3FB65674B5B6A4FF40032BA657C
:101ED800BA6D92FAA2F27A657A6DB2FA82F2D2B249
:101EE80042F02002D2B202F01F02012101FA02F2EE
:101EF8001340002B7BD10123F3E07B685B68022B46
:101F08003CD14FF000733B653B6D93FAA3F3FB6440
:101F1800FB6CB3FA83F3DBB25B09DBB243F001037A
:101F2800DBB2012B02D14F4B1B680FE04FF000735F
:101F3800BB64BB6C93FAA3F37B644FF000733B6400
:101F48003B6C93FAA3F3FB63464B5B6A4FF000725A
:101F5800BA63BA6B92FAA2F27A637A6BB2FA82F235
:101F6800D2B242F02002D2B202F01F02012101FADD
:101F780002F21340002B3AD10123B2E002233B6363
:101F88003B6B93FAA3F3FB62FB6AB3FA83F3DBB20E
:101F98005B09DBB243F00103DBB2012B02D1314B09
:101FA8001B680DE00223BB62BB6A93FAA3F37B6252
:101FB80002233B623B6A93FAA3F3FB61294B5B6AFA
:101FC8000222BA61BA6992FAA2F27A617A69B2FA1D
:101FD80082F2D2B242F02002D2B202F01F020121F4
:101FE80001FA02F21340002B01D1012379E01D4BC5
:101FF8005B6823F003027B685B681A4913434B60F4
:10200800FEF70AFC78670AE0FEF706FC02467B6FDB
:10201800D31A41F28832934201D9032361E0114B6C
:102028005B6803F00C027B685B689B009A42EBD10B
:102038000B4B1B6803F007033A689A4214D2084B0B
:102048001B6823F0070206493B6813430B60044BE7
:102058001B6803F007033A689A4205D0012340E061
:1020680000200240001002407B681B6803F0040354
:10207800002B08D01D4B5B6823F4E0627B68DB68AB
:102088001A4913434B607B681B6803F00803002B55
:1020980009D0164B5B6823F460527B681B69DB0030
:1020A800124913434B6000F029F801460F4B5B6857
:1020B80003F0F003F0223A613A6992FAA2F2FA6068
:1020C800FA68B2FA82F2D2B2D340094AD35C21FA52
:1020D80003F3084A1360084B1B681846FEF758FBC1
:1020E800002318467837BD4680BD00BF0010024067
:1020F80034380008000000200400002080B48BB0B1
:1021080000AF0023FB610023BB6100237B62002337
:102118007B6100233B62294B5B68FB61FB6903F031
:102128000C03042B02D0082B03D03CE0244B3B6269
:102138003CE0FB6903F470134FF47012BA60BA689C
:1021480092FAA2F27A607A68B2FA82F2D2B2D340F4
:102158001C4AD35C7B61194BDB6A03F00F030F2227
:102168003A613A6992FAA2F2FA60FA68B2FA82F22D
:10217800D2B2D340144AD35CBB61FB6903F4803309
:10218800002B08D00E4ABB69B2FBF3F27B6902FB55
:1021980003F37B6204E07B690C4A02FB03F37B6276
:1021A8007B6A3B6202E0064B3B6200BF3B6A184613
:1021B8002C37BD465DF8047B704700BF0010024015
:1021C80000127A004C3800085C38000800093D000D
:1021D80080B400AF034B1B681846BD465DF8047B0E
:1021E800704700BF0000002080B582B000AFFFF745
:1021F800EFFF01460B4B5B6803F4E0634FF4E062CA
:102208007A607A6892FAA2F23A603A68B2FA82F28E
:10221800D2B2D340044AD35C21FA03F318460837F4
:10222800BD4680BD001002404438000880B582B029
:1022380000AFFFF7CDFF01460B4B5B6803F460531B
:102248004FF460527A607A6892FAA2F23A603A6879
:10225800B2FA82F2D2B2D340044AD35C21FA03F331
:1022680018460837BD4680BD0010024044380008B3
:1022780080B592B000AF786000233B640023FB6315
:10228800002387F847307B681B6803F48033002BF2
:1022980000F0D4804E4BDB6903F08053002B0ED145
:1022A8004B4BDB694A4A43F08053D361484BDB69A7
:1022B80003F08053BB60BB68012387F84730454B68
:1022C8001B6803F48073002B18D1424B1B68414AEA
:1022D80043F480731360FEF79FFA386408E0FEF752
:1022E8009BFA02463B6CD31A642B01D903233CE1C9
:1022F800384B1B6803F48073002BF0D0344B1B6AF7
:1023080003F44073FB63FB6B002B00F084807B6855
:102318005B6803F44073FA6B9A427CD02C4B1B6ABF
:1023280023F44073FB634FF480333B633B6B93FAB6
:10233800A3F3FB62FB6AB3FA83F3DBB21A46264BBC
:1023480013449B001A46012313604FF48033BB6388
:10235800BB6B93FAA3F37B637B6BB3FA83F3DBB2B8
:102368001A461D4B13449B001A4600231360184A53
:10237800FB6B1362FB6B03F00103002B4BD0FEF7E2
:102388004BFA38640AE0FEF747FA02463B6CD31A68
:1023980041F28832934201D90323E6E00223BB626B
:1023A800BB6A93FAA3F37B6202233B623B6A93FA0C
:1023B800A3F3FB61FB69B3FA83F3DBB25B09DBB21E
:1023C80043F00203DBB2022B08D1014B1B6A0DE07C
:1023D8000010024000700040008190100223BB6191
:1023E800BB6993FAA3F37B61624B5B6A02223A6191
:1023F8003A6992FAA2F2FA60FA68B2FA82F2D2B2B2
:1024080042F04002D2B202F01F02012101FA02F2A8
:102418001340002BB7D0574B1B6A23F440727B68DC
:102428005B68544913430B6297F84730012B05D179
:10243800504BDB694F4A23F08053D3617B681B689C
:1024480003F00103002B08D04A4B1B6B23F0030257
:102458007B689B68474913430B637B681B6803F0E1
:102468002003002B08D0434B1B6B23F010027B6822
:10247800DB68404913430B637B681B6803F0400328
:10248800002B08D03B4B1B6B23F020027B681B6999
:10249800384913430B637B681B6803F40043002B24
:1024A80008D0344B1B6B23F040027B685B693149D1
:1024B80013430B637B681B6803F40073002B08D07D
:1024C8002C4B5B6823F400027B68DB6929491343C2
:1024D8004B607B681B6803F08003002B08D0254BFA
:1024E800DB6A23F4F8727B689B6922491343CB6249
:1024F8007B681B6803F48053002B08D01D4B1B6BB3
:1025080023F480727B681B6A1A4913430B637B6848
:102518001B6803F48023002B08D0164B1B6B23F495
:1025280080627B685B6A134913430B637B681B6893
:1025380003F40023002B08D00E4B1B6B23F400621E
:102548007B689B6A0B4913430B637B681B6803F426
:102558008013002B08D0074B1B6B23F400527B68B9
:10256800DB6A044913430B63002318464837BD460A
:1025780080BD00BF0010024080B582B000AF786017
:102588007B68002B01D1012349E07B6893F83D303B
:10259800DBB2002B06D17B68002283F83C207868E8
:1025A800FDF7D0FF7B68022283F83D207B681A681C
:1025B8007B6804331946104600F04AF97B6801220B
:1025C80083F848207B68012283F83E207B6801223B
:1025D80083F83F207B68012283F840207B68012232
:1025E80083F841207B68012283F842207B6801221E
:1025F80083F843207B68012283F844207B6801220A
:1026080083F845207B68012283F846207B680122F5
:1026180083F847207B68012283F83D200023184671
:102628000837BD4680BD000080B586B000AFF860B1
:10263800B9607A600023FB75FB6893F83C30012B86
:1026480001D10223FFE0FB68012283F83C207B686C
:10265800142B00F2F08001A252F823F0B9260008EA
:102668003F2800083F2800083F280008F9260008EE
:102678003F2800083F2800083F2800083B2700089B
:102688003F2800083F2800083F2800087B2700084B
:102698003F2800083F2800083F280008BD270008F9
:1026A8003F2800083F2800083F280008FD270008A9
:1026B800FB681B68B968184600F038F9FB681B68A6
:1026C8009A69FB681B6842F008029A61FB681B68FC
:1026D8009A69FB681B6822F004029A61FB681B6810
:1026E8009969BB681A69FB681B680A439A61A5E087
:1026F800FB681B68B968184600F09EF9FB681B6800
:102708009A69FB681B6842F400629A61FB681B685F
:102718009A69FB681B6822F480629A61FB681B68EF
:102728009969BB681B691A02FB681B680A439A61AE
:1027380084E0FB681B68B968184600F0FDF9FB687F
:102748001B68DA69FB681B6842F00802DA61FB68FB
:102758001B68DA69FB681B6822F00402DA61FB680F
:102768001B68D969BB681A69FB681B680A43DA6188
:1027780064E0FB681B68B968184600F05BFAFB6800
:102788001B68DA69FB681B6842F40062DA61FB685F
:102798001B68DA69FB681B6822F48062DA61FB68EF
:1027A8001B68D969BB681B691A02FB681B680A4366
:1027B800DA6143E0FB681B68B968184600F09EFAC6
:1027C800FB681B685A6DFB681B6842F008025A6573
:1027D800FB681B685A6DFB681B6822F004025A6587
:1027E800FB681B68596DBB681A69FB681B680A435C
:1027F8005A6523E0FB681B68B968184600F0DCFAE4
:10280800FB681B685A6DFB681B6842F400625A65D6
:10281800FB681B685A6DFB681B6822F480625A6566
:10282800FB681B68596DBB681B691A02FB681B684B
:102838000A435A6502E00123FB7500BFFB680022CA
:1028480083F83C20FB7D18461837BD4680BD00BF85
:1028580080B485B000AF786039607B681B68FB6026
:102868007B682E4A934203D07B68B3F1804F08D12E
:10287800FB6823F07003FB603B685B68FA681343EE
:10288800FB607B68254A93420FD07B68B3F1804F89
:102898000BD07B68224A934207D07B68214A934237
:1028A80003D07B68204A934208D1FB6823F4407325
:1028B800FB603B68DB68FA681343FB60FB6823F046
:1028C80080023B685B691343FB607B68FA681A60A7
:1028D8003B689A687B68DA623B681A687B689A6228
:1028E8007B680E4A93420BD07B680D4A934207D00F
:1028F8007B680C4A934203D07B680B4A934203D10E
:102908003B681A697B681A637B6801225A6100BFB9
:102918001437BD465DF8047B704700BF002C0140AA
:1029280000400140004401400048014080B487B0A5
:1029380000AF786039607B681B6A23F001027B680E
:102948001A627B681B6A7B617B685B683B617B689A
:102958009B69FB60FB6823F4803323F07003FB6002
:10296800FB6823F00303FB603B681B68FA681343AA
:10297800FB607B6923F002037B613B689B687A6993
:1029880013437B617B68284A93420BD07B68274AB4
:10299800934207D07B68264A934203D07B68254A36
:1029A80093420CD17B6923F008037B613B68DB68A9
:1029B8007A6913437B617B6923F004037B617B683D
:1029C800194A93420BD07B68184A934207D07B6818
:1029D800174A934203D07B68164A934211D13B6948
:1029E80023F480733B613B6923F400733B613B68CC
:1029F8005B693A6913433B613B689B693A691343D6
:102A08003B617B683A695A607B68FA689A613B68FF
:102A18005A687B685A637B687A691A6200BF1C37F8
:102A2800BD465DF8047B7047002C01400040014022
:102A3800004401400048014080B487B000AF78608E
:102A480039607B681B6A23F010027B681A627B6816
:102A58001B6A7B617B685B683B617B689B69FB6089
:102A6800FB6823F0807323F4E043FB60FB6823F4E6
:102A78004073FB603B681B681B02FA681343FB60EA
:102A88007B6923F020037B613B689B681B017A69A3
:102A980013437B617B68244A93420DD17B6923F001
:102AA80080037B613B68DB681B017A6913437B61A8
:102AB8007B6923F040037B617B681B4A93420BD000
:102AC8007B681A4A934207D07B68194A934203D01D
:102AD8007B68184A934213D13B6923F480633B61B6
:102AE8003B6923F400633B613B685B699B003A697F
:102AF80013433B613B689B699B003A6913433B6105
:102B08007B683A695A607B68FA689A613B685A68D8
:102B18007B689A637B687A691A6200BF1C37BD4676
:102B28005DF8047B704700BF002C01400040014065
:102B3800004401400048014080B487B000AF78608D
:102B480039607B681B6A23F480727B681A627B6831
:102B58001B6A7B617B685B683B617B68DB69FB6048
:102B6800FB6823F4803323F07003FB60FB6823F0D9
:102B78000303FB603B681B68FA681343FB607B69CF
:102B880023F400737B613B689B681B027A691343DB
:102B98007B617B68234A93420DD17B6923F40063F0
:102BA8007B613B68DB681B027A6913437B617B6945
:102BB80023F480637B617B681A4A93420BD07B685D
:102BC800194A934207D07B68184A934203D07B681E
:102BD800174A934213D13B6923F480533B613B6905
:102BE80023F400533B613B685B691B013A6913435B
:102BF8003B613B689B691B013A6913433B617B68F6
:102C08003A695A607B68FA68DA613B685A687B6897
:102C1800DA637B687A691A6200BF1C37BD465DF8C3
:102C2800047B7047002C01400040014000440140F3
:102C38000048014080B487B000AF786039607B6895
:102C48001B6A23F480527B681A627B681B6A3B61AB
:102C58007B685B687B617B68DB69FB60FB6823F0F2
:102C6800807323F4E043FB60FB6823F44073FB604C
:102C78003B681B681B02FA681343FB603B6923F43B
:102C880000533B613B689B681B033A6913433B61F4
:102C98007B68164A93420BD07B68154A934207D04B
:102CA8007B68144A934203D07B68134A934209D144
:102CB8007B6923F480437B613B685B699B017A698C
:102CC80013437B617B687A695A607B68FA68DA61CA
:102CD8003B685A687B681A647B683A691A6200BF65
:102CE8001C37BD465DF8047B704700BF002C0140CF
:102CF80000400140004401400048014080B487B0D2
:102D080000AF786039607B681B6A23F480327B6887
:102D18001A627B681B6A3B617B685B687B617B68C6
:102D28005B6DFB60FB6823F4803323F07003FB606A
:102D38003B681B68FA681343FB603B6923F4003364
:102D48003B613B689B681B043A6913433B617B68A2
:102D5800154A93420BD07B68144A934207D07B688C
:102D6800134A934203D07B68124A934209D17B6984
:102D780023F480337B613B685B691B027A691343E8
:102D88007B617B687A695A607B68FA685A653B6838
:102D98005A687B689A657B683A691A6200BF1C3773
:102DA800BD465DF8047B7047002C0140004001409F
:102DB800004401400048014080B487B000AF78600B
:102DC80039607B681B6A23F480127B681A627B680F
:102DD8001B6A3B617B685B687B617B685B6DFB6042
:102DE800FB6823F0807323F4E043FB603B681B68B7
:102DF8001B02FA681343FB603B6923F400133B6131
:102E08003B689B681B053A6913433B617B68164A1C
:102E180093420BD07B68154A934207D07B68144ACB
:102E2800934203D07B68134A934209D17B6923F408
:102E380080237B613B685B699B027A6913437B61F2
:102E48007B687A695A607B68FA685A653B685A6891
:102E58007B68DA657B683A691A6200BF1C37BD4631
:102E68005DF8047B704700BF002C01400040014022
:102E7800004401400048014080B485B000AF78604C
:102E880039607B6893F83C30012B01D102234FE075
:102E98007B68012283F83C207B68022283F83D206E
:102EA8007B681B685B68FB607B681B689B68BB6012
:102EB8007B681B68214A934208D1FB6823F470039E
:102EC800FB603B685B68FA681343FB60FB6823F0B0
:102ED8007003FB603B681B68FA681343FB607B6800
:102EE8001B68FA685A607B681B68144A934209D0C9
:102EF8007B681B68B3F1804F04D07B681B68104A5D
:102F080093420CD1BB6823F08003BB603B689B688D
:102F1800BA681343BB607B681B68BA689A607B68B1
:102F2800012283F83D207B68002283F83C2000239F
:102F380018461437BD465DF8047B7047002C0140E5
:102F48000040014080B58AB002AFF860B9603B60CC
:102F58001346FB80FB68DB6F202B78D1BB68002B06
:102F680002D0FB88002B01D1012371E0FB6800220D
:102F7800C3F88420FB682122DA67FDF74DFC7861ED
:102F8800FB68FA88A3F85020FB68FA88A3F8522057
:102F9800FB689B68B3F5805F08D1FB681B69002B51
:102FA80004D10023FB61BB68BB6103E0BB68FB6124
:102FB8000023BB6130E03B6800937B6900228021DD
:102FC800F86800F0C9FA0346002B04D0FB682022F9
:102FD800DA6703233CE0FB69002B0BD1BB691A8835
:102FE800FB681B68C2F3080292B21A85BB690233F8
:102FF800BB6108E0FB691A78FB681B6892B21A8506
:10300800FB690133FB61FB68B3F852309BB2013BAB
:103018009AB2FB68A3F85220FB68B3F852309BB20F
:10302800002BC8D13B6800937B6900224021F868D7
:1030380000F092FA0346002B04D0FB682022DA67DE
:10304800032305E0FB682022DA67002300E002235F
:1030580018462037BD4680BD80B588B000AF78607F
:103068000023BB777B689A687B681B691A437B6877
:103078005B691A437B68DB6913437B617B681B6868
:103088001A688A4B13407A68126879690B4313608F
:103098007B681B685B6823F440517B68DA687B684F
:1030A8001B680A435A607B689B697B617B681B6A63
:1030B8007A6913437B617B681B689B6823F43061E2
:1030C8007B681B687A690A439A607B681B68784A40
:1030D800934220D1774B1B6B03F00303032B17D8C4
:1030E80001A252F823F000BF013100080D31000899
:1030F80013310008073100080023FB771DE0022385
:10310800FB771AE00423FB7717E00823FB7714E02A
:103118001023FB7711E07B681B68674A934202D152
:103128000023FB7709E07B681B68644A934202D15D
:103138000023FB7701E01023FB777B68DB69B3F59D
:10314800004F5AD1FB7F082B27D801A252F823F051
:103158007D310008853100088D310008A331000851
:1031680093310008A3310008A3310008A3310008F7
:103178009B310008FFF738F8B86113E0FFF756F8FD
:10318800B8610FE04E4BBB610CE0FEF7B7FFB861CA
:1031980008E04FF40043BB6104E00023BB61012356
:1031A800BB7700BFBB69002B74D0BB695A007B6832
:1031B8005B685B081A447B685B68B2FBF3F33B61AE
:1031C8003B690F2B16D93B69B3F5803F12D23B6997
:1031D8009BB223F00F03FB813B695B089BB203F0B2
:1031E80007039AB2FB891343FB817B681B68FA8942
:1031F800DA604FE00123BB774CE0FB7F082B28D82F
:1032080001A252F823F000BF353200083D32000811
:10321800453200085B3200084B3200085B32000878
:103228005B3200085B32000853320008FEF7DCFF0F
:10323800B86113E0FEF7FAFFB8610FE0204BBB61FD
:103248000CE0FEF75BFFB86108E04FF40043BB6198
:1032580004E00023BB610123BB7700BFBB69002BDF
:1032680018D07B685B685A08BB691A447B685B683E
:10327800B2FBF3F33B613B690F2B09D93B69B3F50B
:10328800803F05D23B699AB27B681B68DA6001E02F
:103298000123BB777B6800229A667B680022DA6686
:1032A800BB7F18462037BD4680BD00BFF369FFEFDE
:1032B800003801400010024000440040004800402F
:1032C80000127A0080B483B000AF78607B685B6AD4
:1032D80003F00103002B0AD07B681B685B6823F4AA
:1032E80000317B689A6A7B681B680A435A607B686E
:1032F8005B6A03F00203002B0AD07B681B685B68DB
:1033080023F480317B68DA6A7B681B680A435A6059
:103318007B685B6A03F00403002B0AD07B681B6898
:103328005B6823F480217B681A6B7B681B680A43FF
:103338005A607B685B6A03F00803002B0AD07B683D
:103348001B685B6823F400417B685A6B7B681B68C9
:103358000A435A607B685B6A03F01003002B0AD0AB
:103368007B681B689B6823F480517B689A6B7B6839
:103378001B680A439A607B685B6A03F02003002B92
:103388000AD07B681B689B6823F400517B68DA6B62
:103398007B681B680A439A607B685B6A03F040039A
:1033A800002B1AD07B681B685B6823F480117B684C
:1033B8001A6C7B681B680A435A607B681B6CB3F500
:1033C800801F0AD17B681B685B6823F4C0017B6897
:1033D8005A6C7B681B680A435A607B685B6A03F017
:1033E8008003002B0AD07B681B685B6823F40021EC
:1033F8007B689A6C7B681B680A435A6000BF0C376D
:10340800BD465DF8047B704780B598B002AF786020
:103418007B680022C3F88420FDF7FEF978657B6895
:103428001B681B6803F00803082B2ED16FF07E433E
:1034380000937B6D00224FF40011786800F08CF83F
:103448000346002B21D07B681B68BB63BB6B53E82A
:10345800003F7B637B6B23F080033B657B681B68C5
:103468001A463B6D7B643A64396C7A6C41E80023F8
:10347800FB63FB6B002BE6D17B682022DA677B6855
:10348800002283F87820032362E07B681B681B68AE
:1034980003F00403042B49D16FF07E4300937B6D46
:1034A80000224FF48001786800F056F80346002B9C
:1034B8003CD07B681B687B627B6A53E8003F3B62B9
:1034C8003B6A23F49073FB647B681B681A46FB6CA9
:1034D8003B63FA62F96A3A6B41E80023BB62BB6A54
:1034E800002BE6D17B681B6808333B613B6953E8D6
:1034F800003FFB60FB6823F00103BB647B681B682B
:103508000833BA6CFA61BB61B969FA6941E800230A
:103518007B617B69002BE5D17B682022C3F8802082
:103528007B68002283F87820032311E07B6820223F
:10353800DA677B682022C3F880207B6800221A663D
:103548007B6800225A667B68002283F87820002373
:1035580018465837BD4680BD80B584B000AFF860C6
:10356800B9603B601346FB7149E0BB69B3F1FF3FAB
:1035780045D0FDF751F902463B68D31ABA699A4219
:1035880002D3BB69002B01D1032348E0FB681B6809
:103598001B6803F00403002B31D0FB681B68DB6950
:1035A80003F00803082B10D1FB681B6808221A6275
:1035B800F86800F038F8FB680822C3F88420FB6834
:1035C800002283F87820012329E0FB681B68DB6967
:1035D80003F40063B3F5006F11D1FB681B684FF467
:1035E80000621A62F86800F01EF8FB682022C3F82F
:1035F8008420FB68002283F8782003230FE0FB680F
:103608001B68DA69BB681340BA689A420CBF012389
:103618000023DBB21A46FB799A42A6D0002318464B
:103628001037BD4680BD80B495B000AF78607B6828
:103638001B687B637B6B53E8003F3B633B6B23F466
:103648009073FB647B681B681A46FB6C3B64FA63E7
:10365800F96B3A6C41E80023BB63BB6B002BE6D1E6
:103668007B681B6808333B623B6A53E8003FFB6199
:10367800FB6923F00103BB647B681B680833BA6CE1
:10368800FA62BB62B96AFA6A41E800237B627B6A24
:10369800002BE5D17B681B6E012B18D17B681B685A
:1036A800FB60FB6853E8003FBB60BB6823F0100376
:1036B8007B647B681B681A467B6CBB617A6179699D
:1036C800BA6941E800233B613B69002BE6D17B687E
:1036D8002022C3F880207B6800221A667B680022BB
:1036E8009A6600BF5437BD465DF8047B704780B5C5
:1036F80086B000AFF860B9607A603B60FB68002B69
:1037080001D1012356E0FB68DB6F002B06D1FB6873
:10371800002283F87820F868FCF798FFFB682422D9
:10372800DA67FB681B681A68FB681B6822F00102ED
:103738001A60F868FFF790FC0346012B01D10123BA
:1037480038E0FB685B6A002B02D0F868FFF7BAFD27
:10375800FB681B689A68FB681B6842F480429A60A1
:10376800FB681B689B6823F40041FB681B68BA6808
:103778000A439A607B685B057B613B681B047A6936
:1037880013437B61FB681B681B6823F07F7323F47A
:103798004033FA68126879690B431360FB681B6849
:1037A8001A68FB681B6842F001021A60F868FFF7A4
:1037B8002BFE034618461837BD4680BD0244034613
:1037C800934200D1704703F8011BF9E770B50D4D1E
:1037D8000D4C641BA4100026A64209D10B4D0C4CBD
:1037E80000F018F8641BA4100026A64205D170BD8D
:1037F80055F8043B98470136EEE755F8043B9847DF
:103808000136F2E76C3800086C3800086C3800089C
:1038180070380008F8B500BFF8BC08BC9E46704771
:0C382800F8B500BFF8BC08BC9E46704715
:10383400000000000000000001020304060708095C
:10384400000000000102030402030405060708093E
:103854000A0B0C0D0E0F10100102030405060708D5
:08386400090A0B0C0D0E0F10F8
:04386C00AD010008A2
:0438700089010008C2
:0C38740000127A001000000001000000AB
:0400000508000719CF
:00000001FF
